:1000000000040010ED000000D5000000D900000041
:1000100000000000000000000000000000000000E0
:10002000000000000000000000000000DD000000F3
:100030000000000000000000E1000000E5000000FA
:10004000E9000000E900000000000000E9000000F5
:10005000E9000000E90000000000000000000000CE
:10006000E9000000090B00000D0A0000E900000093
:10007000E9000000E900000000000000E9000000C5
:100080000000000000000000000000000000000070
:100090000000000000000000000000000000000060
:1000A000E9000000E9000000E9000000E9000000AC
:1000B000E9000000E9000000E9000000E90000009C
:1000C000E00E000000000010E4000000E40000105A
:1000D000F0010000FEE7C046FEE7C046FEE7C0466E
:1000E000FEE7C046FEE7C046FEE7C04670B5174CC7
:1000F000174DAC420ED2206861680C34231F1A6879
:100100000023002AF5D01E585E5004339A42FAD8D4
:10011000AC42F0D30F4A944213D2231C0833D51DAE
:10012000ED1AED08ED005D190021626820680023DA
:10013000002A03D0195004339A42FBD80834AC4249
:10014000F3D100F077FD00F095FDFEE7C000000060
:10015000CC000000D400000010B50023002A04D019
:100160001C585C5004339A42FAD810BD0023002278
:10017000002903D01A5004339942FBD87047C04677
:10018000F8B54F46174B4646C0B489468700081C51
:100190000A21984600F0B0FD013783001818FFB21D
:1001A000114C40443D1C0023C65C01333601F6B2BD
:1001B00066550835052BF7D148460A2100F09CFD0D
:1001C0008B00591841443A1C0023A55CC85C0133DC
:1001D0002843A0540832052BF7D10CBC9046994611
:1001E000F8BDC046740D000014010010C3175B0F6A
:1001F000181830B507248443E318C510012098402F
:10020000031C012A13D0022A09D0002A00D030BDD5
:10021000C9000B4A6D18515D81435155F7E7084AF3
:10022000C9006D18505D4340DBB25355EFE7044AF7
:10023000C9006D18505D0343DBB25355E7E7C04674
:1002400014010010E02304495B000022CA54013B62
:10025000002BFBD17047C04614010010F0B5574683
:100260004E464546E0B4002826D18022002692461C
:10027000134C5546ED43134A0023A146A8460029D6
:1002800010D04F463C5C5746E418E400A419155DB5
:100290003D4315550133032BF1D11CBC90469946C3
:1002A000A246F0BD4D462C5C4546E418E400A41976
:1002B000175D3D401555EDE7012307269A46D7E720
:1002C000FC0000101401001070B5041C00F0BAFB13
:1002D000074D061C2B5D0C36B34208D0201C0021B4
:1002E000FFF7BCFF2E55201C0121FFF7B7FF70BDA3
:1002F000FC00001038B580244025E400201C0221B9
:10030000641B00F0F3FA2511F8D138BDF8B5134B92
:100310001B78152B1DD0124B01221A700426114D8B
:1003200011492F1C683680370023F2188C5CE85C7A
:10033000013320438854042BF7D104350836BD42DD
:10034000F2D10A483C2100F017FB094B00221A7039
:10035000F8BD034B00221A700026E0E7F8000010F9
:10036000E4000010A80D000014010010280E000089
:10037000F400001070B5194C2678301C00F062FBB8
:10038000174D0C30A855012605E0013398420BDCCF
:10039000B01AFFF799FF207800F054FB22780C3058
:1003A000AB5C591E8842F0DA00F068FC032100F0D3
:1003B000A3FC0C4D23780139E960002B0BD00123FD
:1003C0005B42AB6000F05AFCC30FC0180122104022
:1003D000C31A2B6170BD0123AB60F3E7F500001079
:1003E000FC0000100001001070B5234C022261686F
:1003F000061C2068FFF7FAFE0025FFF77BFF206848
:1004000061680222FFF7F2FEA560E560002E15D1BB
:100410001A4D012069780131C9B26970FFF7B0FE49
:100420006B78152B24D03E232360154B012259787D
:10043000144B013161601A703E2013E00F4E002012
:1004400031780131C9B23170FFF79AFE3378152B3C
:100450000ED0012323600A4B01201978094B01318A
:1004600061601D700122FFF7C1FEFFF783FF70BDC1
:10047000FFF74CFFFBE7C04600010010F80000103A
:10048000FC000010F500001070B54B4CA16800296D
:1004900002D1E268002A27D0206861680222FFF7B3
:1004A000A5FE256823692B421FD1A3686168E26815
:1004B000ED188E18002D1DD03F2D1BD0E1680022B5
:1004C000002905D00D2E64D0321C2C3A51424A41ED
:1004D000002B27DB3E2D3FD0002A12D1281C311CD7
:1004E000022260C4FFF782FE70BDA3686668ED1843
:1004F000002DE1D160C4002B47DB0120FFF774FF22
:10050000F2E71F2D47D02C2E49D00D2E4DD0642060
:100510001E2100F0EBF9281C311C022260C4FFF7F9
:1005200065FEE1E7012DD5D1244909788E42D3DB60
:1005300002318E42D0DC5B42A36000F09FFB0321BE
:1005400000F0DAFB0139E16000F098FBC30FC0183E
:100550002840C31A2361D6E7184949788E42BBDB8D
:1005600002318E42B8DC5B42A36000F087FB0321BE
:1005700000F0C2FB0139E16000F080FBC30FC0183E
:1005800001221040C31A2361BDE70020FFF72CFFB2
:10059000AAE701229CE7E268002AB4D0ECE7E3680E
:1005A000012BB4D15B42E360B1E7E1680131AED128
:1005B0000123E360ABE7C04600010010FC0000101F
:1005C00070B5FFF73FFE2C486023FF2284246400AF
:1005D000C254191901334254682BF7D16B220D23F1
:1005E0000121194200D08154013308322C2BF8D15B
:1005F000224A234D002313702B706B70214B224C29
:100600001A780020227003221A7000F01BFA1F4E85
:100610000C303070012000F015FA031C0C332278E6
:10062000DBB273701A4C002A1FD03E2201332260C5
:100630006360002329780020A360E360FFF7A0FD3A
:1006400069780120FFF79CFD00200121FFF706FEDD
:1006500001200121FFF702FE03CC0122FFF7C6FDB6
:100660000C4B186800F02AFB70BD0123236033781F
:1006700001336360DDE7C04614010010F400001090
:10068000F8000010E4000010F5000010FC0000105D
:1006900000010010EC00001010B5FFF76BFE0A4CD3
:1006A000012323700020FFF70FFE0120FFF70CFE4F
:1006B000FFF7EAFE00F0B6FA012000F0A1FA237875
:1006C000002BEFD110BDC046F4000010374BC02204
:1006D000D20270B500211A60442299524C229952DC
:1006E0008020334A40001A528020800082241A520F
:1006F00064008B221A538124A4001A538424B2224A
:1007000064001A538224A4001A532A4CC122920076
:100710009C50C0240122A4001A51A024E4001A51C4
:100720008125C3246D01A4001D51C224A400224DC3
:100730001A5102245C51214EC525AD005E51C425DD
:10074000AD005A510425DD805D681D4E2D0C3540ED
:10075000DD805E68E825360CAD003543DD8046253A
:1007600059534E255953174DC72189005D50C62155
:1007700089005A50144DC92189005D50C821890053
:100780005A50124A08219950A1221021D2009950A2
:100790003F21F4229950F0229C500D4A1060596874
:1007A0000C4A0A4008210A439A8070BD004000505C
:1007B0006507000021100000040500000210000081
:1007C0001FE0FFFF70100000711000000C0500001A
:1007D00000E100E0F1FF000010B58E23164C9B00F5
:1007E000E158164A01200A40E25000232364636462
:1007F000012363642423A360E3680F4A01211842A4
:10080000FAD00223936703231367002353675167CA
:100810008023D0580A4C2043D0505068094B0340E5
:1008200053605368084803435360084BC022D20406
:100830001A60596010BDC046008004407F7FFFFFF2
:10084000400D08007EEAFFFF8115000000400240D5
:1008500008B5FFF7C1FF1C4B02229A601B4BE02238
:10086000520098588C210143995099580320814394
:10087000995017498022885810438850154898612C
:10088000FD2040421861FE204042D8618B589343BE
:100890008B50114AC2239B00D05810490140D150BF
:1008A000D0580F490140C02000040143D150FFF748
:1008B0000DFF0C4B12225A62196804220A431A6077
:1008C000094A1A6208BDC0460040004000C000400E
:1008D00000800440FFFFFF0400E100E0FF00FFFF95
:1008E000FFFF00FF008005400000410770B5194C74
:1008F000021C2368002BFCD1174B0125D8698026E8
:100900002843D8611548F600066003209861144812
:1009100041431448014019611348111C00F0EFF9DC
:10092000124B421E812192B249005A5210495A522A
:100930004208013A832192B249005A520D495A5253
:100940005A680E21120C8A4308210A43DA80256076
:1009500070BDC046E80000100040004000E100E02B
:1009600030750000F0FFFF7F40420F000040005054
:100970000202000006020000F8B5031C46464F467E
:1009800088465968C0B41E1C0068083600291CD06F
:100990001A4A43465A431A4B1A4C1A401A4F914668
:1009A0000125002815D1E36841442B43E360134B34
:1009B0005943134B19402160E3681D42FCD0306855
:1009C0000836331F19680029EBD10CBC90469946B4
:1009D000F8BDFFF78BFF3B68002BFCD1E3682B438E
:1009E000E3604B462360E3681D42FCD03068083664
:1009F000331F19680029D4D1E7E7C04630750000DD
:100A0000F0FFFF7F00400040E8000010094B01228A
:100A1000D9690A420DD0084900200860074904201E
:100A2000C880D9690A43DA618021054AC900802358
:100A3000D150704700400040E800001000400050D6
:100A400000E100E0F0B52A4B2A4A196847460A40FF
:100A500080B41A6019688022002844D192000A43A9
:100A60001A603F2201238025214C0F2000271F26DA
:100A700090469C46AD036368424693436360636857
:100A8000624613434200134363602523C046C046B9
:100A9000C046C046013B002BF8D10123002122684B
:100AA00001312A409A4200D000210323C046C046AB
:100AB000C046C046013B002BF8D1042901DC131CC1
:100AC000EDE7002A0AD0331A5B10071C181886427B
:100AD00001DD8742CFDB04BC9046F0BDC31B5B1039
:100AE000061CC01AF3E752000A431A60B9E7C04671
:100AF00000400240FFFCFFFF08B5FFF7A9FEFFF72B
:100B00005FFDFFF7C9FDFAE7374BF4229A5802213F
:100B100070B50A4020D0354A1188013189B2118060
:100B2000118889B21E2952D057D9FE2949D00620F2
:100B3000FF30814209D1002111802D49812292008C
:100B400099522C4B1A6801321A60274AF423D05864
:100B500002210143D15033E0244B27481B8804680D
:100B60001E3B9B1001212143DB0001609BB2C2614F
:100B7000022182681142FCD01E1C08361F4D1E4AFD
:100B8000B6B202205C1CEB5CA4B2DBB2D36193680A
:100B900019491842FBD0B44201D0231CF2E70023CC
:100BA000CB6102208B68144A1842FBD013680121E4
:100BB0008B4313600C4AF423D05804210143D150D5
:100BC00070BDF0229958042081439950BDE7F0226E
:100BD0009858042101439950B7E70329B5D18122E0
:100BE0008B2192009952B0E700400050F0000010B5
:100BF000DA060000EC00001000800540140100102F
:100C00000649074A10B50C881368A4B2C0181368C7
:100C10009842FCD80B889C42F9D110BDF00000101E
:100C2000EC000010024A116813689942FCD070472A
:100C3000EC0000100C4A0D48D16F0D4B0143D167F9
:100C400000221A6401225A64586C0121084A0842A1
:100C5000FAD0002010675167596F01221142FBD072
:100C6000034B9A677047C04604800440800004002C
:100C70000080044008B5FFF73FFF08BD0C4970B580
:100C80000C4B0C680C4D1A68A00040599600013CB2
:100C900070510C60013A002C02D136240C6002E045
:100CA000002A00D13622400040081A6070BDC046BC
:100CB000DC000010E000001000000010094B1722BB
:100CC0001A60094B36221A600023010C074A0918E2
:100CD0009950074A04335043064A8018DC2BF4D15C
:100CE0007047C046DC000010E0000010000000105B
:100CF000CD0D0100E119D66603000B4321D4002974
:100D000031D00122D207030901E0090112099942F9
:100D1000FBD9430801E0490052089942FBD900E0A1
:100D20004908401A07D35241FAD30146104670478A
:100D300049084018F7D29218FAD3401801461046D5
:100D40007047CB0F00D04942021000D540425340BB
:100D500008B5FFF7D4FF0CBC521000D34042002A64
:100D600000D549421847F446002000F001F86047DA
:100D7000704700000E0A0A0A0E040C04040E0E024C
:100D80000E080E0E020E020E0A0A0E02020E080EC7
:100D9000020E08080E0A0E0E020202020E0A0E0AC7
:100DA0000E0E0A0E02020000801F0020802080200C
:100DB000402A804040208040603180C0201B00805D
:100DC000300E0180180A03000FFBFE0000404000B7
:100DD00000514000005540000055400000554000C3
:100DE000005B4000004040000040400000404000E8
:100DF0000060C000003F8000003B800000318000A8
:100E00000071C0000060C0000060C0000060C00051
:100E10000060C00000C0600000C0600000C0600052
:100E2000018030000380380088010000FA000000D3
:100E3000880100007D000000880100007D000000A6
:100E400088010000FA00000088010000FA0000009C
:100E5000880100007D000000880100007D00000086
:100E6000EE010000FA000000880100007D00000093
:100E7000880100007D00000088010000FA000000E9
:100E8000EE010000FA000000EE010000FA00000090
:100E9000EE0100007D000000EE0100007D0000007A
:100EA000EE010000FA000000EE0100007D000000ED
:100EB000EE0100007D0000004B020000FA0000007F
:100EC000EE0100007D000000EE0100007D0000004A
:100ED000EE010000F401000000000000000000002E
:100EE00001000000858ED766098CD3D5F5D8090A94
:100EF000FB871FBF67F78DCB6907F7BD34123D50E5
:100F0000C8844F7FA302DE61AE8D40A7E8BD247A7E
:100F1000EAA21551572EE6BBFF7FD5F67A832A63E6
:100F2000771D86137C2E9FE105575F692E6B938793
:100F30006E9AA150940E8B72AE55CCC5B18A0AB18F
:100F4000D7726F85175C22D0A3FDC4516198ED89DB
:100F50009F82DBF19DC5FBBC89C1EE8359B159630A
:100F6000305C50CCC95ABC9CF930E22F425EF63955
:100F7000D27B1575FB58C1403E9AEB27D9A282C59A
:100F8000C2D66905B3308EEDD2DD831041A41D1F9A
:100F900015E26056C52FF30499EF8EE10832594AE5
:100FA0004CED7B5B40FC0281D9415351FA3DFFACD3
:100FB000B56C096D1DCCB32BFF153D251700000046
:040FC00036000000F7
:04000003000000ED0C
:00000001FF
